:100000000C945D000C9485000C9485000C94850084
:100010000C9485000C9485000C9485000C9485004C
:100020000C9485000C9485000C9485000C9485003C
:100030000C9485000C9485000C9485000C9485002C
:100040000C9467020C9485000C9485000C94850038
:100050000C9485000C9485000C9485000C9485000C
:100060000C9485000C94850000000008000201003B
:100070000003040700000000000000000000000072
:10008000250028002B0000000000240027002A0083
:10009000040404040404040402020202020203032E
:1000A0000303030301020408102040800102040836
:1000B00010200102040810205E0311241FBECFEFA0
:1000C000D8E0DEBFCDBF11E0A0E0B1E0ECE4F7E0A6
:1000D00002C005900D92AE31B107D9F721E0AEE133
:1000E000B1E001C01D92AF33B207E1F710E0CDE5FA
:1000F000D0E004C02197FE010E949E03CC35D107B9
:10010000C9F70E94B1020C94A4030C94000090E083
:10011000FC01EC55FF4F249180579F4FFC018491C7
:10012000882399F090E0880F991FFC01EA57FF4F50
:10013000A591B491FC01E458FF4F859194918FB73C
:10014000F894EC91E22BEC938FBF089590E0FC01C2
:10015000E859FF4F2491FC01EC55FF4F3491FC010D
:10016000E057FF4FE491EE23C9F0222339F023300A
:1001700001F1A8F4213019F1223029F1F0E0EE0F5D
:10018000FF1FE458FF4FA591B4918FB7F894EC91FD
:10019000611126C030953E233C938FBF08952730D0
:1001A000A9F02830C9F0243049F7809180008F7D74
:1001B00003C0809180008F7780938000DFCF84B56B
:1001C0008F7784BDDBCF84B58F7DFBCF8091B0006E
:1001D0008F778093B000D2CF8091B0008F7DF9CF20
:1001E0003E2BDACFAF92BF92CF92DF92EF92FF9287
:1001F0000F931F93CF93DF936C017B018B01040F4F
:10020000151FEB015E01AE18BF08C017D10759F0EA
:100210006991D601ED91FC910190F081E02DC6012C
:100220000995892B79F7C501DF91CF911F910F9126
:10023000FF90EF90DF90CF90BF90AF90089508951A
:1002400090E080E00895CF93DF93EC0160E08E8131
:100250000E94A60061E08E810E94A60060E08E816F
:100260000E94A6008BE891E00197F1F7DF91CF9112
:100270000895CF92DF92EF92FF920F931F93CF9347
:10028000DF936C017C0187E0E80EF11CD0E0C0E058
:10029000062F10E0B8010C2E02C0759567950A94E0
:1002A000E2F76170F70181917F010E94A60021961B
:1002B000C430D10579F7C601DF91CF911F910F911D
:1002C000FF90EF90DF90CF900C942301CF92DF92BC
:1002D000EF92FF920F931F93CF93DF93EC01F62ED3
:1002E000642F8C810E94A6008D818F3F19F060E001
:1002F0000E94A6000F2D10E08F8584FF25C06E019F
:1003000087E0C80ED11CF12CE12CB8010E2C02C0E4
:10031000759567950A94E2F76170F60181916F0116
:100320000E94A600FFEFEF1AFF0A88E0E816F1042A
:1003300061F7CE01DF91CF911F910F91FF90EF9068
:10034000DF90CF900C942301B80184E075956795F8
:100350008A95E1F7CE010E9439016F2DCE01DF9120
:10036000CF911F910F91FF90EF90DF90CF900C9461
:10037000390140E0682F87E291E00C946601CF9349
:10038000DF93823029F49091360198609093360182
:1003900080933A0110923B0180E480933C0180E11C
:1003A00080933D0180E580933E0180912B010E9466
:1003B000870080912C018F3F11F00E94870080916F
:1003C0002D010E948700C7E2D1E09E0127523140F3
:1003D0008091360184FD0AC084E090E021962817C0
:1003E00039073CF48E810E948700EFCF88E090E0CF
:1003F000F5CF8BE39DE00197F1F760E080912B0151
:100400000E94A60060E080912D010E94A6008091CC
:100410002C018F3F19F060E00E94A6008091360108
:1004200084FD39C063E087E291E00E943901CBE4AA
:10043000D6E4CE010197F1F763E087E291E00E94F4
:1004400039012197F1F763E087E291E00E943901D9
:1004500083E592E00197F1F762E087E291E00E9484
:1004600039018091360180620E94B90184E0809355
:1004700037018CE00E94B90181E00E94B9018BE351
:100480009FE10197F1F782E08093380186E0DF91E8
:10049000CF910C94B90180620E94B9018BE496E47B
:1004A0000197F1F78091360180620E94B90183E5DE
:1004B00092E00197F1F78091360180620E94B901C4
:1004C000D0CF41E00E94660181E090E008951F9244
:1004D0000F920FB60F9211242F933F938F939F93F8
:1004E000AF93BF938091230190912401A0912501A6
:1004F000B09126013091220123E0230F2D3758F5CA
:100500000196A11DB11D2093220180932301909398
:100510002401A0932501B093260180911E019091A2
:100520001F01A0912001B09121010196A11DB11DD3
:1005300080931E0190931F01A0932001B09321018D
:10054000BF91AF919F918F913F912F910F900FBECF
:100550000F901F90189526E8230F0296A11DB11D3C
:10056000D2CFCF93DF93CDB7DEB7A1970FB6F89474
:10057000DEBF0FBECDBF789484B5826084BD84B5E4
:10058000816084BD85B5826085BD85B5816085BD8E
:1005900080916E00816080936E0010928100809146
:1005A00081008260809381008091810081608093CE
:1005B0008100809180008160809380008091B100F3
:1005C00084608093B1008091B00081608093B0001E
:1005D00080917A00846080937A0080917A008260B2
:1005E00080937A0080917A00816080937A00809174
:1005F0007A00806880937A001092C10082E00E94A5
:10060000BF0140E150E06CE071E087E291E00E94C0
:10061000F20088EEC82E83E0D82EE12CF12C9AE06F
:10062000492E512C612C712C20E0A22E20E0B22EFC
:10063000E0913A01E23008F03FC0E150F0E0E95DBE
:10064000FE4F848980680E94B9012FB7F8946091A9
:1006500023017091240180912501909126012FBFE3
:10066000A70196010E947C0319A28E010F5D1F4F06
:10067000CA01B901A30192010E947C03605DF801E7
:1006800062938F01211531054105510589F7309796
:1006900061F001900020E9F73197AF01401B510B49
:1006A000B80187E291E00E94F200A114B10409F4BC
:1006B000BFCF0E940000BCCFE1E0C0CFE7E2F1E095
:1006C0001382128284E091E0918380838CE08483A2
:1006D0008FEF85838BE0868385E0878384E0808746
:1006E00083E0818782E082871386148615861686CA
:1006F000178681E00C94BF01A1E21A2EAA1BBB1B36
:10070000FD010DC0AA1FBB1FEE1FFF1FA217B307DD
:10071000E407F50720F0A21BB30BE40BF50B661FF3
:10072000771F881F991F1A9469F7609570958095B7
:1007300090959B01AC01BD01CF010895EE0FFF1F05
:0C0740000590F491E02D0994F894FFCF8F
:10074C00000000006102F20020011F01594F4F4FC1
:0E075C0020574841545320474F4F442100007E
:00000001FF
